:020000040000FA
:04000000B5EF0DF05B
:10060000004C61626F36206465204672616E6B003B
:0106100000E9
:10061200000E0001C36FFF0E0001BE6FFF0EBF6F21
:10062200BAC0C0F0BBC0C1F0BE51C027BF51C12388
:10063200C1BF27EF03F0C15107E1040EC05DD8B07E
:1006420025EF03F027EF03F03FEF03F0010E000167
:10065200BA250001BE6F000E0001BB210001BF6F71
:10066200BFBF3FEF03F0BF5107E1050EBE5DD8B03B
:100672003DEF03F03FEF03F012EF05F0FF0E000134
:10068200BE6FFF0EBF6FBCC0C0F0BDC0C1F0BE5197
:10069200C027BF51C123C1BF5AEF03F0C15107E1C7
:1006A200140EC05DD8B058EF03F05AEF03F072EFAA
:1006B20003F0010E0001BC250001BE6F000E000117
:1006C200BD210001BF6FBFBF72EF03F0BF5107E151
:1006D200150EBE5DD8B070EF03F072EF03F012EFAB
:1006E20005F0BAC0B4F0BBC0B5F0000E0001B76FA0
:1006F200150EB66FD8EC0EF0EA0E0001BE6FFF0EBB
:10070200BF6F600EC06F000EC16FBE51C027BF51D8
:10071200C1230001B4510001C0270001B5510001FD
:10072200C1230001BC510001C025D96E0001BD5199
:100732000001C121DA6E020EDE18D8A4A3EF03F085
:10074200A5EF03F0A8EF03F00001C329C36FBAC0FD
:10075200B4F0BBC0B5F0000E0001B76F150EB66F56
:10076200D8EC0EF0EB0E0001BE6FFF0EBF6F600EF5
:10077200C06F000EC16FBE51C027BF51C12300011F
:10078200B4510001C0270001B5510001C12300018D
:10079200BC510001C025D96E0001BD510001C1212B
:1007A200DA6E020EDE18D8A4D9EF03F0DBEF03F005
:1007B200DEEF03F00001C329C36FBAC0B4F0BBC0BF
:1007C200B5F0000E0001B76F150EB66FD8EC0EF043
:1007D200EC0E0001BE6FFF0EBF6F600EC06F000E09
:1007E200C16FBE51C027BF51C1230001B4510001E6
:1007F200C0270001B5510001C1230001BC51000115
:10080200C025D96E0001BD510001C121DA6E020E70
:10081200DE18D8A40FEF04F011EF04F014EF04F087
:100822000001C329C36FBAC0B4F0BBC0B5F0000E5B
:100832000001B76F150EB66FD8EC0EF0FF0E000177
:10084200BE6FFF0EBF6F600EC06F000EC16FBE5154
:10085200C027BF51C1230001B4510001C0270001CC
:10086200B5510001C1230001BC510001C025D96E60
:100872000001BD510001C121DA6E020EDE18D8A4BA
:1008820045EF04F047EF04F04AEF04F00001C329FA
:10089200C36FBAC0B4F0BBC0B5F0000E0001B76FB1
:1008A200150EB66FD8EC0EF0600E0001BE6F000E92
:1008B200BF6F010EBE27000EBF230001B45100011D
:1008C200BE270001B5510001BF230001BC51000148
:1008D200BE25D96E0001BD510001BF21DA6E020EA4
:1008E200DE18D8A477EF04F079EF04F07CEF04F07F
:1008F2000001C329C36FBAC0B4F0BBC0B5F0000E8B
:100902000001B76F150EB66FD8EC0EF0600E000145
:10091200BE6F000EBF6F140EBE27000EBF23000174
:10092200B4510001BE270001B5510001BF230001EF
:10093200BC510001BE25D96E0001BD510001BF218D
:10094200DA6E020EDE18D8A4A9EF04F0ABEF04F0C1
:10095200AEEF04F00001C329C36FBAC0B4F0BBC04C
:10096200B5F0000E0001B76F150EB66FD8EC0EF0A1
:10097200600E0001BE6F000EBF6F150EBE27000E87
:10098200BF230001B4510001BE270001B55100018F
:10099200BF230001BC510001BE25D96E0001BD512B
:1009A2000001BF21DA6E020EDE18D8A4DBEF04F0DC
:1009B200DDEF04F0E0EF04F00001C329C36FBAC019
:1009C200B4F0BBC0B5F0000E0001B76F150EB66FE4
:1009D200D8EC0EF0600E0001BE6F000EBF6F160E57
:1009E200BE27000EBF230001B4510001BE27000143
:1009F200B5510001BF230001BC510001BE25D96ED3
:100A02000001BD510001BF21DA6E020EDE18D8A42A
:100A12000DEF05F00FEF05F012EF05F00001C3290D
:100A2200C36F0001C3511200000E0001D56F000E0A
:100A3200D46F000E0001D76F000ED66F000E0001BA
:100A4200CF6F000ECE6F000E0001CD6F000E0001C1
:100A5200D16F000ED06F000E0001D36F000ED26F67
:100A6200000E0001D56F000ED46F0001D5BF43EF19
:100A720005F0D55109E1040ED45DD8A043EF05F08D
:100A820045EF05F047EF05F012EF06F0000E00010A
:100A9200D76F000ED66F0001D7BF59EF05F0D751BF
:100AA20009E1140ED65DD8A059EF05F05BEF05F011
:100AB2005DEF05F093EF05F0D4C0B4F0D5C0B5F00A
:100AC200000E0001B76F150EB66FD8EC0EF0600E77
:100AD2000001CA6F000ECB6F0001B4510001CA279A
:100AE2000001B5510001CB230001D6510001CA25F6
:100AF200D96E0001D7510001CB21DA6E200EDF6ED4
:100B02000001D64BD72B0001D7BF91EF05F0D7518B
:100B120009E1140ED65DD8A091EF05F093EF05F030
:100B22005DEF05F00001D44BD52B0001D5BFA3EF3B
:100B320005F0D55109E1040ED45DD8A0A3EF05F06C
:100B4200A5EF05F047EF05F012EF06F0E4EC0DF02B
:100B5200C0C0C2F0C1C0C3F0000E0001C56F140EC8
:100B6200C46F8FEC0BF0C2C0D2F0C3C0D3F0E4EC80
:100B72000DF0030E0001C0150001D06FD16BD0C083
:100B8200B4F0D1C0B5F0000E0001B76F150EB66F0C
:100B9200D8EC0EF0600E0001CA6F000ECB6F0001A0
:100BA200B4510001CA270001B5510001CB23000155
:100BB200D2510001CA25D96E0001D3510001CB21C7
:100BC200DA6E200EDE18D8A4E9EF05F0EBEF05F09F
:100BD200A7EF05F0D0C0B4F0D1C0B5F0000E00010F
:100BE200B76F150EB66FD8EC0EF0600E0001CA6F2B
:100BF200000ECB6F0001B4510001CA270001B551AC
:100C02000001CB230001D2510001CA25D96E000197
:100C1200D3510001CB21DA6E020EDF6E0001CE4B02
:100C2200CF2B0001C8510001CE1909E10001C951C1
:100C32000001CF19D8A420EF06F022EF06F0A7EFAB
:100C420005F0120011EC0FF0070EAEEC0EF00001F1
:100C5200BD6FDC0EBD6530EF06F032EF06F05FEFE0
:100C620006F0B9C0D9FFBAC0DAFFDF500001BD6F8C
:100C7200BD29B9C0D9FFBAC0DAFFDF6EBBC0D9FF48
:100C8200BCC0DAFFDF500001B76FB9C0D9FFBAC0EC
:100C9200DAFFDF50DBEC0CF0B9C0D9FFBAC0DAFFE3
:100CA200140EDF6457EF06F059EF06F05FEF06F01F
:100CB200B9C0D9FFBAC0DAFF010EDF6E070EAEEC83
:100CC2000EF00001BD6F1E0EBD616AEF06F06CEF03
:100CD20006F099EF06F0B9C0D9FFBAC0DAFFDF50CB
:100CE2000001BD6FBD05B9C0D9FFBAC0DAFFDF6E22
:100CF200BBC0D9FFBCC0DAFFDF500001B76FB9C07B
:100D0200D9FFBAC0DAFFDF50DBEC0CF0B9C0D9FF73
:100D1200BAC0DAFFDF50D8A491EF06F093EF06F0E5
:100D220099EF06F0B9C0D9FFBAC0DAFF140EDF6E30
:100D3200060EAEEC0EF00001BD6FDC0EBD65A4EF39
:100D420006F0A6EF06F0D3EF06F0BBC0D9FFBCC099
:100D5200DAFFDF500001BD6FBD29BBC0D9FFBCC0A7
:100D6200DAFFDF6EBBC0D9FFBCC0DAFFDF50000183
:100D7200B76FB9C0D9FFBAC0DAFFDF50DBEC0CF0B5
:100D8200BBC0D9FFBCC0DAFF040EDF64CBEF06F0B4
:100D9200CDEF06F0D3EF06F0BBC0D9FFBCC0DAFF3F
:100DA200010EDF6E060EAEEC0EF00001BD6F1E0EE0
:100DB200BD61DEEF06F0E0EF06F00DEF07F0BBC01D
:100DC200D9FFBCC0DAFFDF500001BD6FBD05BBC05B
:100DD200D9FFBCC0DAFFDF6EBBC0D9FFBCC0DAFFEF
:100DE200DF500001B76FB9C0D9FFBAC0DAFFDF50D8
:100DF200DBEC0CF0BBC0D9FFBCC0DAFFDF50D8A4DB
:100E020005EF07F007EF07F00DEF07F0BBC0D9FFC2
:100E1200BCC0DAFF040EDF6E1200000E0001CA6FC2
:100E2200000EC96F000E0001C66F000EC56F0001F3
:100E3200C6BF25EF07F0C65109E1040EC55DD8A073
:100E420025EF07F027EF07F029EF07F0D0EF07F0C3
:100E5200000E0001CA6F000EC96F0001CABF3BEF4E
:100E620007F0CA5109E1140EC95DD8A03BEF07F0A3
:100E72003DEF07F03FEF07F075EF07F0C5C0B4F0A4
:100E8200C6C0B5F0000E0001B76F150EB66FD8ECF4
:100E92000EF0000E0001C36F010EC46F0001B451C9
:100EA2000001C3270001B5510001C4230001C9514B
:100EB2000001C325D96E0001CA510001C421DA6EB6
:100EC200010EDF6E0001C94BCA2B0001CABF73EFCE
:100ED20007F0CA5109E1140EC95DD8A073EF07F0FB
:100EE20075EF07F03FEF07F0000E0001C86F000E2C
:100EF200C76F0001C8BF87EF07F0C85109E1040EB0
:100F0200C75DD8A087EF07F089EF07F08BEF07F0F6
:100F1200BEEF07F0C7C0B4F0C8C0B5F0000E0001C4
:100F2200B76F150EB66FD8EC0EF0000E0001B425A7
:100F32000001C36F010E0001B5210001C46FC3C0DF
:100F4200BAF0C4C0BBF00001BA51BB11D8A4200E44
:100F5200BC6F35EC0BF00001C74BC82B0001C8BFBA
:100F6200BCEF07F0C85109E1040EC75DD8A0BCEF81
:100F720007F0BEEF07F08BEF07F00001C54BC62B61
:100F82000001C6BFCEEF07F0C65109E1040EC55DF0
:100F9200D8A0CEEF07F0D0EF07F029EF07F012004C
:100FA200000E0001C76F000E0001C96F000EC86F6E
:100FB2000001C9BFE6EF07F0C95109E1040EC85D9F
:100FC200D8A0E6EF07F0E8EF07F0EAEF07F08DEFC1
:100FD20008F0000E0001CB6F000ECA6F0001CBBFFC
:100FE200FCEF07F0CB5109E1140ECA5DD8A0FCEF6B
:100FF20007F0FEEF07F000EF08F07BEF08F0C8C043
:10100200B4F0C9C0B5F0000E0001B76F150EB66F8F
:10101200D8EC0EF0600E0001C46F000EC56F000127
:10102200B4510001C4270001B5510001C5230001DC
:10103200CA510001C425D96E0001CB510001C5215E
:10104200DA6E020EDE18D8B429EF08F02BEF08F0A2
:1010520037EF08F0C8C0BAF0C9C0BBF0CAC0BCF0D4
:10106200CBC0BDF009EC03F00001C76F0001C7510E
:10107200D8B43EEF08F040EF08F066EF08F0C8C0C1
:10108200B4F0C9C0B5F0000E0001B76F150EB66F0F
:10109200D8EC0EF0600E0001C46F000EC56F0001A7
:1010A200B4510001C4270001B5510001C52300015C
:1010B200CA510001C425D96E0001CB510001C521DE
:1010C200DA6E0001C751300FDF6E000E0001C76FEC
:1010D2000001CA4BCB2B0001CBBF79EF08F0CB51FB
:1010E20009E1140ECA5DD8A079EF08F07BEF08F091
:1010F20000EF08F00001C84BC92B0001C9BF8BEFFC
:1011020008F0C95109E1040EC85DD8A08BEF08F0C0
:101112008DEF08F0EAEF07F012000001BF6F000147
:10112200C069C1690001C1BFA0EF08F0C15109E166
:10113200020EC05DD8A0A0EF08F0A2EF08F0A4EF65
:1011420008F03CEF09F00001C269C3690001C3BFA6
:10115200B4EF08F0C35109E1020EC25DD8A0B4EFAA
:1011620008F0B6EF08F0B8EF08F02AEF09F0C0C0B7
:10117200B4F0C1C0B5F0000E0001B76F150EB66F26
:10118200D8EC0EF00001BA51150D600E0001BB6FD4
:10119200000EBC6FF350BB27F450BC230001B451C6
:1011A2000001BB270001B5510001BC230001BF5162
:1011B2000001BB27000EBC230001C2510001BB2568
:1011C200D96E0001C3510001BC21DA6EC0C0B4F077
:1011D200C1C0B5F0000E0001B76F150EB66FD8ECA6
:1011E2000EF00001BA51150D000E0001BD6F010E87
:1011F200BE6FF350BD27F450BE230001B45100016D
:10120200BD270001B5510001BE230001BF510001FD
:10121200BD27000EBE230001C2510001BD25E16EB3
:101222000001C3510001BE21E26EDFCFE7FF0001E2
:10123200C24BC32B0001C3BF28EF09F0C35109E120
:10124200020EC25DD8A028EF09F02AEF09F0B8EF2C
:1012520008F00001C04BC12B0001C1BF3AEF09F0F9
:10126200C15109E1020EC05DD8A03AEF09F03CEF8E
:1012720009F0A4EF08F01200000E0001C06F000E8A
:10128200BF6F000E0001C26F000EC16F0001C2BF2E
:1012920054EF09F0C25109E1040EC15DD8A054EF28
:1012A20009F056EF09F058EF09F0BFEF09F0000E10
:1012B2000001C46F000EC36F0001C4BF6AEF09F0E2
:1012C200C45109E1140EC35DD8A06AEF09F06CEFB6
:1012D20009F06EEF09F0ADEF09F0C1C0B4F0C2C081
:1012E200B5F0000E0001B76F150EB66FD8EC0EF018
:1012F200000E0001BC6F010EBD6F0001B451000170
:10130200BC270001B5510001BD230001C3510001FA
:10131200BC25D96E0001C4510001BD21DA6EDE0484
:10132200D8A496EF09F098EF09F09BEF09F00001BD
:10133200BF4BC02B0001C34BC42B0001C4BFABEF9A
:1013420009F0C45109E1140EC35DD8A0ABEF09F056
:10135200ADEF09F06EEF09F00001C14BC22B0001A5
:10136200C2BFBDEF09F0C25109E1040EC15DD8A0B0
:10137200BDEF09F0BFEF09F058EF09F0BAC0D9FF8D
:10138200BBC0DAFF0001BF51DE1807E1C051DE1811
:10139200D8A4CEEF09F0D0EF09F0E8EF09F0BAC017
:1013A200D9FFBBC0DAFFDECFBCF0DDCFBDF0010E4E
:1013B2000001BC27000EBD23BAC0D9FFBBC0DAFFB3
:1013C200BCC0DEFFBDC0DDFF010EE9EF09F0000E7B
:1013D2001200000E0001DB6F020EDA6F000E000138
:1013E200DD6F0A0EDC6F000E0001DF6F020EDE6F92
:1013F2007AEC0EF0C4EC0EF002EC0FF00DEC0FF0F4
:10140200010E0001B76F010EDBEC0CF0010E0001C2
:10141200BA6F060EBB6FBA51BB11D8A4000EBC6FD7
:1014220035EC0BF0020E0001D96F450ED86FA90EF4
:10143200E82EFED7D82FFCD7D92FFAD700F000F02C
:1014420002EC0FF00EEC07F0DAC0C8F0DBC0C9F016
:1014520015EC05F0D1EC07F0DEC0B7F00001DC516D
:10146200DBEC0CF011EC0FF0DC0E0001B96F000E9A
:10147200BA6FDE0E0001BB6F000EBC6F23EC06F0EC
:1014820081B246EF0AF048EF0AF089EF0AF081A232
:101492004DEF0AF04FEF0AF048EF0AF0DEC0C7F056
:1014A2000001DC5196EC0AF0DEC0C7F00001DC510D
:1014B20096EC0AF00009D8B461EF0AF063EF0AF083
:1014C20076EF0AF0DA0E0001BA6F000EBB6F3DEC48
:1014D20009F0E806D8A470EF0AF072EF0AF089EF7B
:1014E2000AF076EF0AF08AEC0CF081B27BEF0AF098
:1014F2007DEF0AF074EF0AF002EC0FF00EEC07F049
:10150200DAC0C8F0DBC0C9F015EC05F0D1EC07F089
:10151200210E0001D86F760EE82EFED7D82FFCD709
:1015220000F02DEF0AF000EF00F00001D06F000193
:10153200C751150DEA0E0001C86FFF0EC96F600E8C
:10154200CA6F000ECB6FC851CA27C951CB23F350C3
:10155200CA27F450CB230001D0510001CA25D96E0D
:101562000001000E0001CB21DA6E020EDE18D8A4B3
:10157200BDEF0AF0BFEF0AF0C2EF0AF0000E34EF3F
:101582000BF00001C751150DEA0E0001C86FFF0EE6
:10159200C96F600ECA6F000ECB6FC851CA27C951FE
:1015A200CB23F350CA27F450CB230001D0510001C2
:1015B200CA25D96E0001000E0001CB21DA6E200E81
:1015C200DE18D8A4E7EF0AF0E9EF0AF0F3EF0AF029
:1015D2000001C7050001BA6F0001D0058EEC08F0CA
:1015E20031EF0BF00001C751150DEA0E0001C86F73
:1015F200FF0EC96F600ECA6F000ECB6FC851CA27AB
:10160200C951CB23F350CA27F450CB230001D05148
:101612000001CA25D96E0001000E0001CB21DA6E4D
:101622000001C751150DEA0E0001CC6FFF0ECD6F00
:10163200000ECE6F010ECF6FCC51CE27CD51CF23EE
:10164200F350CE27F450CF230001D0510001CE2514
:10165200E16E0001000E0001CF21E26EDFCFE7FF55
:1016620039EC0CF0010E1200000E0001C26F62EFA5
:101672000BF00001C2510001BD6FBE6BBD510001F4
:10168200BA250001BF6FBE510001BB210001C06F2E
:10169200000E0001BC210001C16FBFC0F6FFC0C037
:1016A200F7FFC1C0F8FFF8BA03D00800F55005D023
:1016B200F6CFE9FFF7CFEAFFEF500FEC0EF0000193
:1016C200C22B0001C2510001BD6FBE6BBD510001B2
:1016D200BA250001BF6FBE510001BB210001C06FDE
:1016E200000E0001BC210001C16FBFC0F6FFC0C0E7
:1016F200F7FFC1C0F8FFF8BA03D00800F55005D0D3
:10170200F6CFE9FFF7CFEAFFEF500009D8A48CEF3C
:101712000BF08EEF0BF03AEF0BF01200000E00010F
:10172200C76FC3BF99EF0BF097EF0BF09FEF0BF072
:10173200C26DC31FD8B0C32B010EC76FC5BFA6EFC2
:101742000BF0A4EF0BF0AAEF0BF0C46DC51FD8B0DD
:10175200C52BC451C511D8B4B1EF0BF0B3EF0BF0E8
:10176200D7EF0BF0010EC66FBBEF0BF0D890C4376A
:10177200C537C62BC5AFC0EF0BF0C2EF0BF0B7EF0A
:101782000BF0C451C25DC551C359D8A0CBEF0BF0C9
:10179200CDEF0BF0D1EF0BF0C451C25FC551C35B6B
:1017A200D890C533C433C62FC2EF0BF0C751D8B49B
:1017B200DDEF0BF0DFEF0BF0E3EF0BF0C26DC31FB9
:1017C200D8B0C32BC2C0C2F0C3C0C3F01200400ED7
:1017D2004AEC0DF0000E0001B96F070E0001B96569
:1017E200F5EF0BF0F7EF0BF0F9EF0BF036EF0CF033
:1017F200000E0001BA6F070E0001BA6503EF0CF08C
:1018020005EF0CF007EF0CF02BEF0CF00001B951D3
:10181200080D540E0001B76F010EB86FF350B727D1
:10182200F450B8230001BA510001B725D96E000166
:10183200000E0001B821DA6EDF5094EC0EF00001C8
:10184200BA2B070E0001BA6529EF0CF02BEF0CF052
:1018520007EF0CF00001B92B070E0001B96534EF58
:101862000CF036EF0CF0F9EF0BF009EC0FF0120070
:10187200000E0001C66F000EC56F0001C6BF4BEF20
:101882000CF0C65109E1040EC55DD8A04BEF0CF077
:101892004DEF0CF04FEF0CF089EF0CF00001C52971
:1018A2000001B76F010EDBEC0CF0C5C0B4F0C6C08E
:1018B200B5F0000E0001B76F150EB66FD8EC0EF042
:1018C200000E0001B4250001C36F010E0001B52115
:1018D2000001C46FC3C0BAF0C4C0BBF00001BA516A
:1018E200BB11D8A4200EBC6F35EC0BF00001C54B28
:1018F200C62B0001C6BF87EF0CF0C65109E1040EEA
:10190200C55DD8A087EF0CF089EF0CF04FEF0CF01B
:101912001200000E0001C66F000EC56F0001C6BFA7
:101922009CEF0CF0C65109E1040EC55DD8A09CEFF6
:101932000CF09EEF0CF0A0EF0CF0DAEF0CF00001CF
:10194200C5290001B76F010EDBEC0CF0C5C0B4F085
:10195200C6C0B5F0000E0001B76F150EB66FD8EC19
:101962000EF0600E0001B4250001C36F000E0001ED
:10197200B5210001C46FC3C0BAF0C4C0BBF00001FE
:10198200BA51BB11D8A4200EBC6F35EC0BF000018C
:10199200C54BC62B0001C6BFD8EF0CF0C65109E1FA
:1019A200040EC55DD8A0D8EF0CF0DAEF0CF0A0EF72
:1019B2000CF012000001B86FFFEF0CF00001B851FB
:1019C2007F0F80094AEC0DF013EF0DF00001B851C2
:1019D200BF0F80094AEC0DF013EF0DF00001B85172
:1019E200930F80094AEC0DF013EF0DF00001B8518E
:1019F200D30F80094AEC0DF013EF0DF00001B7513F
:101A0200010AD8B4DFEF0CF0030AD8B4E7EF0CF008
:101A1200010AD8B4EFEF0CF0070AD8B4F7EF0CF0D4
:101A220013EF0DF01200000E0001BC6F000EBD6F2F
:101A3200000EBE6F000EBF6FB4A122EF0DF024EFB7
:101A42000DF02CEF0DF0B851BC27B951BD23BA519E
:101A5200BE23BB51BF23D890B837B937BA37BB378B
:101A6200D890B733B633B533B433B451B511B611D8
:101A7200B711D8A43FEF0DF041EF0DF01DEF0DF0BF
:101A8200BCC0B4F0BDC0B5F0BEC0B6F0BFC0B7F0C8
:101A920012000001B66F39EC0EF0000E956E8090C8
:101AA20080920001B6390F0BECEC0EF015EC0FF042
:101AB2000001B651ECEC0EF015EC0FF0030EE82E1F
:101AC200FED700F00001B605D8B46AEF0DF06CEF56
:101AD2000DF076EF0DF0020E0001B619D8A474EFE6
:101AE2000DF076EF0DF07BEF0DF0A60EE82EFED78F
:101AF20000F000F00F0E956E39EC0EF01200000EA1
:101B0200956E0D0E0001B66FFB0EE82EFED7B62FB6
:101B1200FCD700F000F080908092030EECEC0EF007
:101B220015EC0FF0030EE82EFED700F0030EECECDE
:101B32000EF015EC0FF0030EE82EFED700F0030EA8
:101B4200ECEC0EF015EC0FF0030EE82EFED700F0D1
:101B5200020EECEC0EF015EC0FF0030EE82EFED7A1
:101B620000F00F0E956E1200B40EF66E1C0EF76E9C
:101B7200000EF86E01EE54F010EE40F00900F5CFC1
:101B8200EEFFE550E150FAE1380EF66E1E0EF76EEA
:101B9200000EF86E00EEE0F010EE04F00900F5CF52
:101BA200EEFFE550E150FAE101EE00F0540EEE6A6C
:101BB200E806FDE100EE60F0540EEE6AE806FDE193
:101BC2000001EAEF09F0E0C0B4F0E1C0B5F0E2C014
:101BD200B6F0E3C0B7F06D0E0001B86F4E0EB96FEC
:101BE200C60EBA6F410EBB6F14EC0DF0B4C0E0F03C
:101BF200B5C0E1F0B6C0E2F0B7C0E3F0390E0001C3
:101C0200E027300EE123000EE223000EE323FF0E55
:101C1200E215C06F7F0EE315C16F12000001B76FAE
:101C22000001B75194EC0EF00001B86F28EF0EF0EE
:101C3200C00E4AEC0DF038EF0EF0940E4AEC0DF0A7
:101C420038EF0EF0D40E4AEC0DF038EF0EF0000132
:101C5200B851940AD8B419EF0EF0540AD8B423EF4D
:101C62000EF0140AD8B41EEF0EF038EF0EF0120088
:101C720080908082808400F019EC0FF00001B46F34
:101C8200B439F00B0001B56F8094808400F019EC38
:101C92000FF00001B51380940001B5BF53EF0EF0B1
:101CA20055EF0EF03BEF0EF080920001B5517F0B25
:101CB20012000D1F1F1F1F1F1F0D0E1F1F1F1F1F93
:101CC2001F0E00040E1F1F0E04000E1B0A1F111F01
:101CD2000A0A08041F101E101F00040A0E111F100A
:101CE2000E0008040E010F110F00040A0E010F115D
:101CF2000F00000E956E000E7F6E9368000E7E6ED2
:101D0200000E926ECD80CECFB4F0CFCFB5F0FAEC0C
:101D12000EF07E8EC280000EC16EC09EC70EC0162F
:101D2200F80EC01612000001B66F39EC0EF0000E6C
:101D3200956E808080920001B6390F0BECEC0EF0AC
:101D420015EC0FF00001B651ECEC0EF015EC0FF0B3
:101D52000F0E956E39EC0EF012000001B56FB5C092
:101D6200B4F00001B447B447C250B419C30BB4195C
:101D7200C26EC282C2B2C0EF0EF0C2EF0EF0BBEF73
:101D82000EF0C450120080EC0DF0280E4AEC0DF05B
:101D92000F0E4AEC0DF0010E4AEC0DF0060E4AEC65
:101DA2000DF0800E4AEC0DF0E8EC0BF01200000191
:101DB200B451B603F3CFB8F0F4CFB9F0B451B703CE
:101DC200F350B927B551B603F350B927B8C0B4F0F0
:101DD200B9C0B5F012000001B56F83CFB4F0F00EB8
:101DE2000001B4170001B5510F0B0001B411836E4D
:101DF2001200B4C0E0F0B5C0E1F00001E26BE36BA9
:101E02001200010E4AEC0DF0800E4AEC0DF01200A9
:101E1200020E4AEC0DF012000C0E4AEC0DF012000C
:101E22000F0E4AEC0DF01200808400F08094120034
:0A1E320083500F0B120001000000A6
:020000040020DA
:08000000FFFFFFFFFFFFFFFF00
:020000040030CA
:0E000000FF081F1EFF8B81FF0FC00FE00F4097
:00000001FF
