:020000040000FA
:0400000016EF00F007
:100008000182F2A40AEF00F00CEF00F014EF00F008
:10001800F2940B0ED76EDC0ED66E010E0001F06F57
:0800280001921100BFEF0CF082
:100600000070657264752E2E2E2073636F726520E4
:100610000001000A006400E80310274C61626F3596
:10062000206465204672616E6B004E697665617567
:100630002023310050657264752E2E2E2073636F57
:1006400072653A202564004E697665617520232520
:0306500064000043
:1006540000016F6F81B231EF03F033EF03F0F2EF7B
:1006640004F081A238EF03F03AEF03F033EF03F024
:10067400000E00016E6F030E6D6F00016EBF4DEF33
:1006840003F06E5106E16D05D8B04BEF03F04DEF6A
:1006940003F04FEF03F0F2EF04F06DC060F06EC0B2
:1006A40061F0000E0001636F150E626F6DEC0DF0CA
:1006B400EA0E0001686FFF0E696F400E6A6F010E4B
:1006C4006B6F68516A2769516B2300016051000107
:1006D4006A270001615100016B2300016F51000181
:1006E4006A25D96E0001000E00016B21DA6EDE046A
:1006F400D8A47FEF03F081EF03F0D4EF03F06DC0D3
:1007040060F06EC061F0000E0001636F150E626F41
:100714006DEC0DF0EA0E0001686FFF0E696F400E7C
:100724006A6F010E6B6F68516A2769516B23000170
:10073400605100016A270001615100016B2300012F
:100744006F5100016A25D96E0001000E00016B2172
:10075400DA6E200EDF6E6DC063F000016F51D1ECD4
:100764000AF0200E95EC0CF0040E0001636F0001FA
:100774006F51D1EC0AF066C0D9FF67C0DAFFDECF53
:1007840068F0DDCF69F0010E00016827000E6923CF
:1007940066C0D9FF67C0DAFF68C0DEFF69C0DDFF4D
:1007A400F2EF04F06DC060F06EC061F0000E000165
:1007B400636F150E626F6DEC0DF0EA0E0001686F49
:1007C400FF0E696F400E6A6F010E6B6F68516A27E6
:1007D40069516B230001605100016A2700016151D6
:1007E40000016B2300016F5100016A25D96E0001DD
:1007F400000E00016B21DA6E020EDE18D8A405EF9C
:1008040004F007EF04F05AEF04F06DC060F06EC01E
:1008140061F0000E0001636F150E626F6DEC0DF058
:10082400EA0E0001686FFF0E696F400E6A6F010ED9
:100834006B6F68516A2769516B2300016051000195
:100844006A270001615100016B2300016F5100010F
:100854006A25D96E0001000E00016B21DA6E200EAC
:10086400DF6E6DC063F000016F51D1EC0AF0200E11
:1008740095EC0CF0040E0001636F00016F51D1EC94
:100884000AF066C0D9FF67C0DAFFDECF68F0DDCFBB
:1008940069F0020E00016827000E692366C0D9FFC3
:1008A40067C0DAFF68C0DEFF69C0DDFFF2EF04F065
:1008B4006DC060F06EC061F0000E0001636F150E34
:1008C400626F6DEC0DF0EA0E0001686FFF0E696F48
:1008D400400E6A6F010E6B6F68516A2769516B2372
:1008E4000001605100016A270001615100016B237E
:1008F40000016F5100016A25D96E0001000E00014C
:100904006B21DA6E030EDE18D8A48BEF04F08DEFA2
:1009140004F0E0EF04F06DC060F06EC061F0000E12
:100924000001636F150E626F6DEC0DF0EA0E0001AD
:10093400686FFF0E696F400E6A6F010E6B6F68512E
:100944006A2769516B230001605100016A27000185
:10095400615100016B2300016F5100016A25D96EBA
:100964000001000E00016B21DA6E200EDF6E6DC0F7
:1009740063F000016F51D1EC0AF0200E95EC0CF0FD
:10098400040E0001636F00016F51D1EC0AF066C0E0
:10099400D9FF67C0DAFFDECF68F0DDCF69F0030E60
:1009A40000016827000E692366C0D9FF67C0DAFF1B
:1009B40068C0DEFF69C0DDFFF2EF04F000016D07DF
:1009C400D8A06E0700016EBFF2EF04F06E5106E18D
:1009D4006D05D8B0F0EF04F0F2EF04F04FEF03F040
:1009E4001200000E0001E96F0A0EE86F000E00010C
:1009F400E76F000EE66F000E0001E56F000EE46F76
:100A04006BEC0CF059EC0DF097EC0DF0A2EC0DF042
:100A1400010E0001636F010ED1EC0AF01B0E000100
:100A2400656F060E666F65516611D8A4000E676F78
:100A340008EC09F0020E0001B16F450EB06FA90E6B
:100A4400E82EFED7B02FFCD7B12FFAD700F000F074
:100A540097EC0DF00001F005D8A433EF05F035EF65
:100A640005F083EF05F0FCEC06F0DEEC0BF056EC41
:100A74000AF00009D8A441EF05F043EF05F079EF3F
:100A840005F0E6C07AF0E7C07BF011EC0CF0000E44
:100A94000001E96F0A0EE86FA4EC07F0000E0001F4
:100AA400E76F000EE66F000E0001EF6F010EEE6FB0
:100AB400000E0001E56F000EE46F2A0E0001656F61
:100AC400060E666F65516611D8A4000E676F08ECB8
:100AD40009F0020E0001B16F250EB06F310EE82E41
:100AE400FED7B02FFCD7B12FFAD700F000F0040ED8
:100AF4000001636F0001E851D1EC0AF0000E00011F
:100B0400F06FE80E0001656F000E666F25EC08F0CB
:100B1400E60E0001666F000E676F0001E8512AECD3
:100B240003F0000E0001636F0A0E626FE6C060F00E
:100B3400E7C061F0A5EC08F060C06EF061C06FF032
:100B4400000E0001716F0A0E706F62EC09F0000173
:100B5400E45100016E190BE10001E55100016F1928
:100B6400D8B4B7EF05F0B9EF05F0EDEF05F00001EB
:100B7400EE4BEF2B0001E44BE52B97EC0DF0B20E9E
:100B840000016C6F000E6D6F470E00016E6F060E54
:100B94006F6FEEC070F0EFC071F0FAEC05F0B20EBA
:100BA4000001656F000E666F65516611D8A4200EB2
:100BB400676F08EC09F0020E0001B16F450EB06FCB
:100BC400A90EE82EFED7B02FFCD7B12FFAD700F02C
:100BD40000F0A4EC07F0210E0001B06F760EE82EB1
:100BE400FED7B02FFCD700F02CEF05F016EF00F085
:100BF400700E0001736F000E746FDCEF06F0250EAB
:100C040000017919D8B409EF06F00BEF06F016EFDE
:100C140006F06CC0D9FF6DC0DAFF79C0DFFF0001B8
:100C24006C4B6D2BDCEF06F0000E0001756F6EC08F
:100C3400F6FF6FC0F7FF00016E4B6F2BF86A0800D8
:100C4400F5CF79F000017951000AD8B4F0EF06F03D
:100C5400640AD8B434EF06F00D0AD8B434EF06F0C1
:100C6400DCEF06F073C0D9FF74C0DAFFDECF77F093
:100C7400DDCF78F0020E00017327000E742300010B
:100C840078BF49EF06F047EF06F051EF06F0030E88
:100C9400000175130001776D781FD8B0782B010E11
:100CA4000001796F050E00017919D8A45CEF06F0F4
:100CB4005EEF06F060EF06F088EF06F00001795170
:100CC400020D110EF324F66E060EF420F76EF86A88
:100CD400000EF8220900F5500001775D0900F55077
:100CE4007859D8B078EF06F07AEF06F07CEF06F08A
:100CF40088EF06F00001792B050E00017919D8A4BC
:100D040086EF06F088EF06F060EF06F075C072F02B
:100D1400030E00017217D8B492EF06F094EF06F0B8
:100D24009DEF06F06CC0D9FF6DC0DAFF2D0EDF6EAB
:100D340000016C4B6D2B79C076F0D2EF06F0000108
:100D44007651020D110EF324F66E060EF420F76EA2
:100D5400F86A000EF8220900F5CF62F00A00F5CF18
:100D640063F077C060F078C061F096EC0AF060C080
:100D740067F061C068F0000E00016A6F0A0E696FC7
:100D8400ABEC0BF000016751300F0001796F6CC0C0
:100D9400D9FF6DC0DAFF79C0DFFF00016C4B6D2B0A
:100DA400000176077629D8A4DAEF06F0DCEF06F026
:100DB400A1EF06F06EC0F6FF6FC0F7FF00016E4BA7
:100DC4006F2BF86A0800F5CF79F000017951D8A4A7
:100DD400EEEF06F0F0EF06F001EF06F06CC0D9FF7D
:100DE4006DC0DAFF000EDF6E000E00016D6F000EA5
:100DF4006C6F1200010E00017A6F000E0001766F15
:100E0400000E756F000E0001786F000E776F000EF4
:100E14000001796F7F0E0001606F010E616F6A0E31
:100E24000001626F010E636FE6EC0CF06A0E0001C4
:100E3400606F010E616F550E0001626F010E636FEA
:100E4400E6EC0CF0550E0001606F010E616F400E70
:100E54000001626F010E636FE6EC0CF03EEF07F0E9
:100E6400400E00017725D96E010E7821DA6E200E2E
:100E7400DF6E0001774B782B000178BF4BEF07F052
:100E8400785109E1140E775DD8A04BEF07F04DEFD0
:100E940007F032EF07F08FEF07F040EC0CF06CC076
:100EA4006EF06DC06FF0000E0001716F140E706F64
:100EB40062EC09F000016E510001796F400E0001EF
:100EC4007925D96EDA6A010EDA22200EDE18D8A44A
:100ED4006EEF07F070EF07F04FEF07F040EC0CF007
:100EE40000016C51030B00017A6F00017A51D8A400
:100EF4007EEF07F080EF07F083EF07F000017A2917
:100F04007A6F400E00017925D96EDA6A010EDA2271
:100F14007AC0DFFF0001754B762B0001EE51000112
:100F2400755D7651800A0001746F0001EF51800AEB
:100F340000017459D8A0A1EF07F0A3EF07F04FEF19
:100F440007F01200000E0001696F000E686F000EBA
:100F540000016B6F000E6A6F97EC0DF0000E00013C
:100F6400696F000E686F000169BFC2EF07F0695135
:100F740009E1040E685DD8A0C2EF07F0C4EF07F0E2
:100F8400C6EF07F024EF08F0000E00016B6F000EAF
:100F94006A6F00016BBFD8EF07F06B5109E1140EC3
:100FA4006A5DD8A0D8EF07F0DAEF07F0DCEF07F0BE
:100FB40012EF08F068C060F069C061F0000E000133
:100FC400636F150E626F6DEC0DF0400E0001666FDD
:100FD400010E676F00016051000166270001615135
:100FE4000001672300016A5100016625D96E0001E2
:100FF4006B5100016721DA6E200EDF6E00016A4B2F
:101004006B2B00016BBF10EF08F06B5109E1140E5C
:101014006A5DD8A010EF08F012EF08F0DCEF07F0DB
:101024000001684B692B000169BF22EF08F0695188
:1010340009E1040E685DD8A022EF08F024EF08F05F
:10104400C6EF07F01200070E43EC0DF00001676FC6
:10105400C80E676530EF08F032EF08F05EEF08F075
:10106400040E0001636F65C0D9FF66C0DAFFDF506C
:10107400D1EC0AF0200E95EC0CF065C0D9FF66C0E7
:10108400DAFFDF500001676F672965C0D9FF66C0CA
:10109400DAFFDF6E65C0D9FF66C0DAFF140EDF64C5
:1010A40056EF08F058EF08F05EEF08F065C0D9FF7E
:1010B40066C0DAFF010EDF6E070E43EC0DF000018F
:1010C400676F640E676169EF08F06BEF08F097EFE4
:1010D40008F0040E0001636F65C0D9FF66C0DAFF33
:1010E400DF50D1EC0AF0200E95EC0CF065C0D9FF6E
:1010F40066C0DAFFDF500001676F670565C0D9FF7E
:1011040066C0DAFFDF6E65C0D9FF66C0DAFFDF5064
:10111400D8A48FEF08F091EF08F097EF08F065C0BE
:10112400D9FF66C0DAFF140EDF6E040E0001636F90
:1011340065C0D9FF66C0DAFFDF50D1EC0AF0000EBB
:1011440095EC0CF01200000E0001656F63BFAFEF69
:1011540008F0ADEF08F0B5EF08F0626D631FD8B08A
:10116400632B010E656F61BFBCEF08F0BAEF08F0A6
:10117400C2EF08F0606D611FD8B0612B010E651BD2
:10118400000E676F000E666F62516311D8B4CDEF25
:1011940008F0CFEF08F0F7EF08F0010E646FD7EF17
:1011A40008F0D89062376337642B63AFDCEF08F044
:1011B400DEEF08F0D3EF08F0D89066376737625156
:1011C400605D63516159D8A0EAEF08F0ECEF08F0D4
:1011D400F1EF08F06251605F6351615B6681D89002
:1011E40063336233642FDEEF08F06551D8B4FDEF4A
:1011F40008F0FFEF08F003EF09F0666D671FD8B041
:10120400672B66C060F067C061F01200000E000139
:101214006D6F35EF09F000016D510001686F696B66
:1012240068510001652500016A6F6951000166215A
:1012340000016B6F000E0001672100016C6F6AC032
:10124400F6FF6BC0F7FF6CC0F8FFF8BA03D00800D4
:10125400F55005D0F6CFE9FFF7CFEAFFEF5095EC54
:101264000CF000016D2B00016D510001686F696B7A
:1012740068510001652500016A6F6951000166210A
:1012840000016B6F000E0001672100016C6F6AC0E2
:10129400F6FF6BC0F7FF6CC0F8FFF8BA03D0080084
:1012A400F55005D0F6CFE9FFF7CFEAFFEF5000097C
:1012B400D8A45FEF09F061EF09F00DEF09F0120017
:1012C400000E0001736F6FBF6CEF09F06AEF09F055
:1012D40072EF09F06E6D6F1FD8B06F2B010E736F34
:1012E40071BF79EF09F077EF09F07DEF09F0706DC8
:1012F400711FD8B0712B70517111D8B484EF09F0FB
:1013040086EF09F0AAEF09F0010E726F8EEF09F073
:10131400D89070377137722B71AF93EF09F095EF56
:1013240009F08AEF09F070516E5D71516F59D8A0C0
:101334009EEF09F0A0EF09F0A4EF09F070516E5F81
:1013440071516F5BD89071337033722F95EF09F040
:101354007351D8B4B0EF09F0B2EF09F0B6EF09F069
:101364006E6D6F1FD8B06F2B6EC06EF06FC06FF0D4
:101374001200400E40EC0BF0000E0001656F070EEA
:1013840000016565C8EF09F0CAEF09F0CCEF09F078
:1013940009EF0AF0000E0001666F070E0001666592
:1013A400D6EF09F0D8EF09F0DAEF09F0FEEF09F013
:1013B40000016551080D000E0001636F010E646F9A
:1013C400F3506327F4506423000166510001632540
:1013D400D96E0001000E00016421DA6EDF5029ECA1
:1013E4000DF00001662B070E00016665FCEF09F0A5
:1013F400FEEF09F0DAEF09F00001652B070E00019A
:10140400656507EF0AF009EF0AF0CCEF09F09EECEE
:101414000DF0120000001115151B1B0E040E151BF8
:101424000A0E15151B110A15151B0A0A0E1B0A1F95
:10143400111F0A0A08041F101E101F00040A0E11AF
:101444001F100E0008040E010F110F00040A0E01F4
:101454000F110F00202020202020202020202020D9
:101464002020202020202020002020202020202098
:101474002020202020202020202020202000202088
:101484002020202020202020202020202020202058
:101494002020002020202020202020202020202068
:1014A4002020202020202000000E0001626F000E6A
:1014B400616F000E626F000E616F000162BF6CEF1E
:1014C4000AF0625109E1140E615DD8A06CEF0AF0D4
:1014D4006EEF0AF070EF0AF094EF0AF07F0E00014D
:1014E4006125D96E010E6221DA6EDE04D8A47DEF87
:1014F4000AF07FEF0AF082EF0AF0000E95EF0AF08F
:101504000001614B622B000162BF92EF0AF062514D
:1015140009E1140E615DD8A092EF0AF094EF0AF08D
:1015240070EF0AF0010E1200000E0001656F000E4C
:10153400646F62516311D8B4A2EF0AF0A4EF0AF009
:10154400CCEF0AF0010E666FACEF0AF0D890623768
:101554006337662B63AFB1EF0AF0B3EF0AF0A8EF7D
:101564000AF0D890643765376251605D6351615900
:10157400D8A0BFEF0AF0C1EF0AF0C6EF0AF062513B
:10158400605F6351615B6481D89063336233662F1B
:10159400B3EF0AF064C060F065C061F012000001AE
:1015A400646FF5EF0AF0000164517F0F800940EC8D
:1015B4000BF009EF0BF000016451BF0F800940EC00
:1015C4000BF009EF0BF000016451930F800940EC1C
:1015D4000BF009EF0BF000016451D30F800940ECCC
:1015E4000BF009EF0BF000016351010AD8B4D5EFF9
:1015F4000AF0030AD8B4DDEF0AF0010AD8B4E5EF23
:101604000AF0070AD8B4EDEF0AF009EF0BF0120064
:10161400000E0001686F000E696F000E6A6F000E05
:101624006B6F60A118EF0BF01AEF0BF022EF0BF0C9
:10163400645168276551692366516A2367516B2396
:10164400D8906437653766376737D8906333623329
:10165400613360336051611162116311D8A435EFB5
:101664000BF037EF0BF013EF0BF068C060F069C0BC
:1016740061F06AC062F06BC063F012000001626F37
:1016840008EC0DF0000E956E809080920001623996
:101694000F0B81EC0DF0A6EC0DF00001625181EC12
:1016A4000DF0A6EC0DF0030EE82EFED700F00001BD
:1016B4006205D8B460EF0BF062EF0BF06CEF0BF047
:1016C400020E00016219D8A46AEF0BF06CEF0BF064
:1016D40071EF0BF0A60EE82EFED700F000F00F0E0F
:1016E400956E08EC0DF01200000E956E0D0E0001C3
:1016F400626FFB0EE82EFED7622FFCD700F000F0DD
:1017040080908092030E81EC0DF0A6EC0DF0030E98
:10171400E82EFED700F0030E81EC0DF0A6EC0DF0E0
:10172400030EE82EFED700F0030E81EC0DF0A6ECBC
:101734000DF0030EE82EFED700F0020E81EC0DF042
:10174400A6EC0DF0030EE82EFED700F00F0E956EFA
:101754001200000169516A11D8B4B3EF0BF0B5EF70
:101764000BF0D9EF0BF0010E6B6FBDEF0BF0D890BF
:1017740069376A376B2B6AAFC2EF0BF0C4EF0BF01B
:10178400B9EF0BF06951675D6A516859D8A0CDEF84
:101794000BF0CFEF0BF0D3EF0BF06951675F6A5199
:1017A400685BD8906A3369336B2FC4EF0BF067C062
:1017B40067F068C068F0120097EC0DF0400E00016D
:1017C400656F010E666F65516611D8A4200E676FB0
:1017D40008EC09F0020E0001636F010ED1EC0AF06F
:1017E400550E0001656F010E666F65516611D8A430
:1017F400200E676F08EC09F0030E0001636F010E01
:10180400D1EC0AF06A0E0001656F010E666F655136
:101814006611D8A4200E676F08EC09F01200A2EC40
:101824000DF097EC0DF07E0E00016C6F000E6D6FE5
:10183400340E00016E6F060E6F6F7AC070F07BC0BD
:1018440071F0FAEC05F07E0E0001656F000E666F14
:1018540065516611D8A4200E676F08EC09F0060ED6
:1018640000017D6F130E7C6FAD0EE82EFED77C2F2A
:10187400FCD77D2FFAD700F000F01200EAC060F028
:10188400EBC061F0ECC062F0EDC063F06D0E0001DE
:10189400646F4E0E656FC60E666F410E676F0AEC7D
:1018A4000BF060C0EAF061C0EBF062C0ECF063C022
:1018B400EDF0390E0001EA27300EEB23000EEC2385
:1018C400000EED23FF0EEC156C6F7F0EED156D6FA2
:1018D4001200000E956E000E7F6E9368000E7E6EF1
:1018E400000E926ECD80CECF60F0CFCF61F08FEC42
:1018F4000DF07E8EC280000EC16EC09EC70EC01653
:10190400F80EC016D58ED59CD59AD596D550F80B21
:101914000209D56E0B0ED76EDC0ED66EF28AF294E7
:10192400F28CF28E12000001636F0001635129EC06
:101934000DF00001646FAEEF0CF0C00E40EC0BF044
:10194400BEEF0CF0940E40EC0BF0BEEF0CF0D40E96
:1019540040EC0BF0BEEF0CF000016451940AD8B4D3
:101964009FEF0CF0540AD8B4A9EF0CF0140AD8B4C1
:10197400A4EF0CF0BEEF0CF01200180EF66E140E6D
:10198400F76E000EF86E01EE00F010EE94F0090010
:10199400F5CFEEFFE550E150FAE1540EF66E1B0E62
:1019A400F76E000EF86E00EEEAF010EE06F0090095
:1019B400F5CFEEFFE550E150FAE10001F06B019044
:1019C40001920001F3EF04F060C064F061C065F0BF
:1019D400F1EF0CF00001644B652B624B632B62C08A
:1019E400D9FF63C0DAFF64C0E1FF65C0E2FFDFCF67
:1019F400E7FFE750D8A401EF0DF003EF0DF0ECEF93
:101A04000CF060C060F061C061F0120080908082D0
:101A1400808400F0ADEC0DF00001606F6039F00BD4
:101A24000001616F8094808400F0ADEC0DF0000142
:101A340061138094000161BF22EF0DF024EF0DF0DB
:101A44000AEF0DF08092000161517F0B120000013A
:101A5400626F08EC0DF0000E956E8080809200019C
:101A640062390F0B81EC0DF0A6EC0DF00001625110
:101A740081EC0DF0A6EC0DF00F0E956E08EC0DF058
:101A840012000001616F61C060F0000160476047AF
:101A9400C2506019C30B6019C26EC282C2B255EF44
:101AA4000DF057EF0DF050EF0DF0C450120076EC2E
:101AB4000BF0280E40EC0BF00F0E40EC0BF0010E77
:101AC40040EC0BF0060E40EC0BF0800E40EC0BF0FB
:101AD400BBEC09F01200000160516203F3CF64F023
:101AE400F4CF65F060516303F350652761516203DD
:101AF400F350652764C060F065C061F01200000116
:101B0400616F83CF60F0F00E000160170001615136
:101B14000F0B00016011836E120060C0EAF061C017
:101B2400EBF00001EC6BED6B1200010E40EC0BF0DE
:101B3400800E40EC0BF01200020E40EC0BF0120091
:101B44000C0E40EC0BF01200808400F08094120024
:0C1B540001000000010083500F0B120084
:020000040020DA
:08000000FFFFFFFFFFFFFFFF00
:020000040030CA
:0E000000FF081F1EFF8B81FF0FC00FE00F4097
:00000001FF
