:020000040000FA
:04000000DAEF0AF039
:10060000004C61626F36206465204672616E6B003B
:0106100000E9
:10061200000E0001C36FFF0E0001BE6FFF0EBF6F21
:10062200BAC0C0F0BBC0C1F0BE51C027BF51C12388
:10063200C1BF24EF03F0C15108E1C005D8A024EFE7
:1006420003F026EF03F010EF05F0010E0001BA25CA
:100652000001BE6F000E0001BB210001BF6FBFBFD2
:100662003EEF03F0BF5107E1040EBE5DD8B03CEF90
:1006720003F03EEF03F010EF05F0FF0E0001BE6F36
:10068200FF0EBF6FBCC0C0F0BDC0C1F0BE51C027DD
:10069200BF51C123C1BF56EF03F0C15108E1C005EC
:1006A200D8A056EF03F058EF03F010EF05F0010E5B
:1006B2000001BC250001BE6F000E0001BD2100013A
:1006C200BF6FBFBF70EF03F0BF5107E1150EBE5DF4
:1006D200D8B06EEF03F070EF03F010EF05F0BAC080
:1006E200B4F0BBC0B5F0000E0001B76F150EB66FC7
:1006F2001FEC0CF0EA0E0001BE6FFF0EBF6F600E22
:10070200C06F000EC16FBE51C027BF51C12300018F
:10071200B4510001C0270001B5510001C1230001FD
:10072200BC510001C025D96E0001BD510001C1219B
:10073200DA6E020EDE18D8A4A1EF03F0A3EF03F0E5
:10074200A6EF03F00001C329C36FBAC0B4F0BBC067
:10075200B5F0000E0001B76F150EB66F1FEC0CF06E
:10076200EB0E0001BE6FFF0EBF6F600EC06F000E7A
:10077200C16FBE51C027BF51C1230001B451000156
:10078200C0270001B5510001C1230001BC51000185
:10079200C025D96E0001BD510001C121DA6E020EE1
:1007A200DE18D8A4D7EF03F0D9EF03F0DCEF03F0A3
:1007B2000001C329C36FBAC0B4F0BBC0B5F0000ECC
:1007C2000001B76F150EB66F1FEC0CF0EC0E0001B6
:1007D200BE6FFF0EBF6F600EC06F000EC16FBE51C5
:1007E200C027BF51C1230001B4510001C02700013D
:1007F200B5510001C1230001BC510001C025D96ED1
:100802000001BD510001C121DA6E020EDE18D8A42A
:100812000DEF04F00FEF04F012EF04F00001C32912
:10082200C36FBAC0B4F0BBC0B5F0000E0001B76F21
:10083200150EB66F1FEC0CF0FF0E0001BE6FFF0E1F
:10084200BF6F600EC06F000EC16FBE51C027BF5197
:10085200C1230001B4510001C0270001B5510001BC
:10086200C1230001BC510001C025D96E0001BD5158
:100872000001C121DA6E020EDE18D8A443EF04F0A3
:1008820045EF04F048EF04F00001C329C36FBAC07A
:10089200B4F0BBC0B5F0000E0001B76F150EB66F15
:1008A2001FEC0CF0600E0001BE6F000EBF6F010E58
:1008B200BE27000EBF230001B4510001BE27000174
:1008C200B5510001BF230001BC510001BE25D96E04
:1008D2000001BD510001BF21DA6E020EDE18D8A45C
:1008E20075EF04F077EF04F07AEF04F00001C3290A
:1008F200C36FBAC0B4F0BBC0B5F0000E0001B76F51
:10090200150EB66F1FEC0CF0600E0001BE6F000EEC
:10091200BF6F140EBE27000EBF230001B4510001A9
:10092200BE270001B5510001BF230001BC510001E7
:10093200BE25D96E0001BD510001BF21DA6E020E43
:10094200DE18D8A4A7EF04F0A9EF04F0ACEF04F08E
:100952000001C329C36FBAC0B4F0BBC0B5F0000E2A
:100962000001B76F150EB66F1FEC0CF0600E0001A0
:10097200BE6F000EBF6F150EBE27000EBF23000113
:10098200B4510001BE270001B5510001BF2300018F
:10099200BC510001BE25D96E0001BD510001BF212D
:1009A200DA6E020EDE18D8A4D9EF04F0DBEF04F001
:1009B200DEEF04F00001C329C36FBAC0B4F0BBC0BC
:1009C200B5F0000E0001B76F150EB66F1FEC0CF0FC
:1009D200600E0001BE6F000EBF6F160EBE27000E26
:1009E200BF230001B4510001BE270001B55100012F
:1009F200BF230001BC510001BE25D96E0001BD51CB
:100A02000001BF21DA6E020EDE18D8A40BEF05F04A
:100A12000DEF05F010EF05F00001C329C36F0001CF
:100A2200C3511200000E0001D56F000ED46F000EEC
:100A32000001D76F000ED66F000E0001CF6F000EBF
:100A4200CE6F000E0001CD6F000E0001D16F000EBF
:100A5200D06F000E0001D36F000ED26F000E0001A6
:100A6200D56F000ED46F0001D5BF41EF05F0D5510F
:100A720009E1040ED45DD8A041EF05F043EF05F083
:100A820045EF05F010EF06F0000E0001D76F000EE3
:100A9200D66F0001D7BF57EF05F0D75109E1140E09
:100AA200D65DD8A057EF05F059EF05F05BEF05F0E2
:100AB20091EF05F0D4C0B4F0D5C0B5F0000E00013E
:100AC200B76F150EB66F1FEC0CF0600E0001CA6F07
:100AD200000ECB6F0001B4510001CA270001B551CD
:100AE2000001CB230001D6510001CA25D96E0001B5
:100AF200D7510001CB21DA6E200EDF6E0001D64BFA
:100B0200D72B0001D7BF8FEF05F0D75109E1140EA3
:100B1200D65DD8A08FEF05F091EF05F05BEF05F001
:100B22000001D44BD52B0001D5BFA1EF05F0D55163
:100B320009E1040ED45DD8A0A1EF05F0A3EF05F002
:100B420045EF05F010EF06F009EC0BF0C0C0C2F063
:100B5200C1C0C3F0000E0001C56F140EC46F56EC85
:100B620009F0C2C0D2F0C3C0D3F009EC0BF0030EFF
:100B72000001C0150001D06FD16BD0C0B4F0D1C05C
:100B8200B5F0000E0001B76F150EB66F1FEC0CF03A
:100B9200600E0001CA6F000ECB6F0001B45100015C
:100BA200CA270001B5510001CB230001D251000137
:100BB200CA25D96E0001D3510001CB21DA6E200E75
:100BC200DE18D8A4E7EF05F0E9EF05F0A5EF05F090
:100BD200D0C0B4F0D1C0B5F0000E0001B76F150E51
:100BE200B66F1FEC0CF0600E0001CA6F000ECB6FE7
:100BF2000001B4510001CA270001B5510001CB2305
:100C02000001D2510001CA25D96E0001D351000161
:100C1200CB21DA6E020EDF6E0001CE4BCF2B00012C
:100C2200C8510001CE1909E10001C9510001CF19D3
:100C3200D8A41EEF06F020EF06F0A5EF05F0120093
:100C4200070EF5EC0BF00001BD6FDC0EBD652CEF5D
:100C520006F02EEF06F05BEF06F0B9C0D9FFBAC07E
:100C6200DAFFDF500001BD6FBD29B9C0D9FFBAC09C
:100C7200DAFFDF6EBBC0D9FFBCC0DAFFDF50000174
:100C8200B76FB9C0D9FFBAC0DAFFDF5000EC0AF083
:100C9200B9C0D9FFBAC0DAFF140EDF6453EF06F011
:100CA20055EF06F05BEF06F0B9C0D9FFBAC0DAFF24
:100CB200010EDF6E070EF5EC0BF00001BD6F1E0E8C
:100CC200BD6166EF06F068EF06F095EF06F0B9C079
:100CD200D9FFBAC0DAFFDF500001BD6FBD05B9C050
:100CE200D9FFBAC0DAFFDF6EBBC0D9FFBCC0DAFFE2
:100CF200DF500001B76FB9C0D9FFBAC0DAFFDF50C9
:100D020000EC0AF0B9C0D9FFBAC0DAFFDF50D8A4AC
:100D12008DEF06F08FEF06F095EF06F0B9C0D9FF20
:100D2200BAC0DAFF140EDF6E060EF5EC0BF000010E
:100D3200BD6FDC0EBD65A0EF06F0A2EF06F0CFEFAF
:100D420006F0BBC0D9FFBCC0DAFFDF500001BD6FA7
:100D5200BD29BBC0D9FFBCC0DAFFDF6EBBC0D9FF63
:100D6200BCC0DAFFDF500001B76FB9C0D9FFBAC00B
:100D7200DAFFDF5000EC0AF0BBC0D9FFBCC0DAFFDB
:100D8200040EDF64C7EF06F0C9EF06F0CFEF06F0FE
:100D9200BBC0D9FFBCC0DAFF010EDF6E060EF5EC58
:100DA2000BF00001BD6F1E0EBD61DAEF06F0DCEF45
:100DB20006F009EF07F0BBC0D9FFBCC0DAFFDF5075
:100DC2000001BD6FBD05BBC0D9FFBCC0DAFFDF6E3D
:100DD200BBC0D9FFBCC0DAFFDF500001B76FB9C09A
:100DE200D9FFBAC0DAFFDF5000EC0AF0BBC0D9FF6E
:100DF200BCC0DAFFDF50D8A401EF07F003EF07F021
:100E020009EF07F0BBC0D9FFBCC0DAFF040EDF6EEA
:100E12001200000E0001C86F000EC76F000E000125
:100E2200C66F000EC56F0001C6BF21EF07F0C651A5
:100E320009E1040EC55DD8A021EF07F023EF07F00A
:100E420025EF07F0D3EF07F0000E0001C86F000E88
:100E5200C76F0001C8BF37EF07F0C85109E1140E90
:100E6200C75DD8A037EF07F039EF07F03BEF07F087
:100E720071EF07F0C5C0B4F0C6C0B5F0000E0001B6
:100E8200B76F150EB66F1FEC0CF0000E0001C36FAA
:100E9200010EC46F0001B4510001C3270001B55116
:100EA2000001C4230001C7510001C325D96E00010E
:100EB200C8510001C421DA6E010EDF6E0001C74B7A
:100EC200C82B0001C8BF6FEF07F0C85109E1140E2B
:100ED200C75DD8A06FEF07F071EF07F03BEF07F0A7
:100EE200000E0001CA6F000EC96F0001CABF83EF76
:100EF20007F0CA5109E1040EC95DD8A083EF07F0DB
:100F020085EF07F087EF07F0C1EF07F00001C9296D
:100F12000001B76F010E00EC0AF0C9C0B4F0CAC0FC
:100F2200B5F0000E0001B76F150EB66F1FEC0CF096
:100F3200000E0001B4250001C36F010E0001B521AE
:100F42000001C46FC3C0BAF0C4C0BBF00001BA5103
:100F5200BB11D8A4200EBC6FFCEC08F00001C94BF9
:100F6200CA2B0001CABFBFEF07F0CA5109E1040E44
:100F7200C95DD8A0BFEF07F0C1EF07F087EF07F018
:100F82000001C54BC62B0001C6BFD1EF07F0C65109
:100F920009E1040EC55DD8A0D1EF07F0D3EF07F049
:100FA20025EF07F01200000E0001C76F000E0001CE
:100FB200C96F000EC86F0001C9BFE9EF07F0C95140
:100FC20009E1040EC85DD8A0E9EF07F0EBEF07F0E6
:100FD200EDEF07F090EF08F0000E0001CB6F000E6E
:100FE200CA6F0001CBBFFFEF07F0CB5109E1140E2E
:100FF200CA5DD8A0FFEF07F001EF08F003EF08F099
:101002007EEF08F0C8C0B4F0C9C0B5F0000E000110
:10101200B76F150EB66F1FEC0CF0600E0001C46FB7
:10102200000EC56F0001B4510001C4270001B55183
:101032000001C5230001CA510001C425D96E000177
:10104200CB510001C521DA6E020EDE18D8B42CEFA6
:1010520008F02EEF08F03AEF08F0C8C0BAF0C9C0A5
:10106200BBF0CAC0BCF0CBC0BDF009EC03F000017C
:10107200C76F0001C751D8B441EF08F043EF08F041
:1010820069EF08F0C8C0B4F0C9C0B5F0000E0001A5
:10109200B76F150EB66F1FEC0CF0600E0001C46F37
:1010A200000EC56F0001B4510001C4270001B55103
:1010B2000001C5230001CA510001C425D96E0001F7
:1010C200CB510001C521DA6E0001C751300FDF6E2E
:1010D200000E0001C76F0001CA4BCB2B0001CBBF32
:1010E2007CEF08F0CB5109E1140ECA5DD8A07CEF69
:1010F20008F07EEF08F003EF08F00001C84BC92B9F
:101102000001C9BF8EEF08F0C95109E1040EC85DA4
:10111200D8A08EEF08F090EF08F0EDEF07F0120084
:10112200000E0001DB6F0A0EDA6F000E0001DD6FA8
:101132000A0EDC6F000E0001DF6F020EDE6FC1ECE3
:101142000BF00BEC0CF049EC0CF058EC0CF0010E2F
:101152000001B76F010E00EC0AF0010E0001BA6F38
:10116200060EBB6FBA51BB11D8A4000EBC6FFCECCB
:1011720008F0020E0001D96F450ED86FA90EE82EB5
:10118200FED7D82FFCD7D92FFAD700F000F049ECC0
:101192000CF00AEC07F0DAC0C8F0DBC0C9F013ECBF
:1011A20005F0D4EC07F050EC0CF0DC0E0001B96F46
:1011B200000EBA6FDE0E0001BB6F000EBC6F21EC99
:1011C20006F081B2E7EF08F0E9EF08F0EFEF08F080
:1011D200DEC0B9F00001DC515EEC0BF0210E000123
:1011E200D86F760EE82EFED7D82FFCD700F0D4EFBA
:1011F20008F000EF00F0000E0001C26F29EF09F0C5
:101202000001C2510001BD6FBE6BBD510001BA2584
:101212000001BF6FBE510001BB210001C06F000E73
:101222000001BC210001C16FBFC0F6FFC0C0F7FFC3
:10123200C1C0F8FFF8BA03D00800F55005D0F6CFC8
:10124200E9FFF7CFEAFFEF5034EC0BF00001C22BBD
:101252000001C2510001BD6FBE6BBD510001BA2534
:101262000001BF6FBE510001BB210001C06F000E23
:101272000001BC210001C16FBFC0F6FFC0C0F7FF73
:10128200C1C0F8FFF8BA03D00800F55005D0F6CF78
:10129200E9FFF7CFEAFFEF500009D8A453EF09F0B6
:1012A20055EF09F001EF09F01200000E0001C76FBF
:1012B200C3BF60EF09F05EEF09F066EF09F0C26D9F
:1012C200C31FD8B0C32B010EC76FC5BF6DEF09F0A6
:1012D2006BEF09F071EF09F0C46DC51FD8B0C52BD3
:1012E200C451C511D8B478EF09F07AEF09F09EEF36
:1012F20009F0010EC66F82EF09F0D890C437C537E6
:10130200C62BC5AF87EF09F089EF09F07EEF09F030
:10131200C451C25DC551C359D8A092EF09F094EFF0
:1013220009F098EF09F0C451C25FC551C35BD89070
:10133200C533C433C62F89EF09F0C751D8B4A4EF1F
:1013420009F0A6EF09F0AAEF09F0C26DC31FD8B0E9
:10135200C32BC2C0C2F0C3C0C3F01200400E6FEC78
:101362000AF0000E0001B96F070E0001B965BCEF6B
:1013720009F0BEEF09F0C0EF09F0FDEF09F0000E31
:101382000001BA6F070E0001BA65CAEF09F0CCEF8F
:1013920009F0CEEF09F0F2EF09F00001B951080DA2
:1013A200540E0001B76F010EB86FF350B727F45017
:1013B200B8230001BA510001B725D96E0001000E11
:1013C2000001B821DA6EDF50DBEC0BF00001BA2B22
:1013D200070E0001BA65F0EF09F0F2EF09F0CEEF67
:1013E20009F00001B92B070E0001B965FBEF09F006
:1013F200FDEF09F0C0EF09F054EC0CF0120000010F
:10140200B86F24EF0AF00001B8517F0F80096FEC2A
:101412000AF038EF0AF00001B851BF0F80096FECF3
:101422000AF038EF0AF00001B851930F80096FEC0F
:101432000AF038EF0AF00001B851D30F80096FECBF
:101442000AF038EF0AF00001B751010AD8B404EFEC
:101452000AF0030AD8B40CEF0AF0010AD8B414EF68
:101462000AF0070AD8B41CEF0AF038EF0AF01200AB
:10147200000E0001BC6F000EBD6F000EBE6F000EAD
:10148200BF6FB4A147EF0AF049EF0AF051EF0AF03B
:10149200B851BC27B951BD23BA51BE23BB51BF239A
:1014A200D890B837B937BA37BB37D890B733B633D5
:1014B200B533B433B451B511B611B711D8A464EF32
:1014C2000AF066EF0AF042EF0AF0BCC0B4F0BDC009
:1014D200B5F0BEC0B6F0BFC0B7F012000001B66FE3
:1014E20080EC0BF0000E956E809080920001B63970
:1014F2000F0B33EC0CF05CEC0CF00001B65133EC4A
:101502000CF05CEC0CF0030EE82EFED700F00001AC
:10151200B605D8B48FEF0AF091EF0AF09BEF0AF00C
:10152200020E0001B619D8A499EF0AF09BEF0AF057
:10153200A0EF0AF0A60EE82EFED700F000F00F0E84
:10154200956E80EC0BF01200000E956E0D0E0001F0
:10155200B66FFB0EE82EFED7B62FFCD700F000F0D8
:1015620080908092030E33EC0CF05CEC0CF0030ED6
:10157200E82EFED700F0030E33EC0CF05CEC0CF01E
:10158200030EE82EFED700F0030E33EC0CF05CECF9
:101592000CF0030EE82EFED700F0020E33EC0CF036
:1015A2005CEC0CF0030EE82EFED700F00F0E956EE9
:1015B2001200420EF66E170EF76E000EF86E01EE76
:1015C20054F010EE40F00900F5CFEEFFE550E15087
:1015D200FAE1C60EF66E180EF76E000EF86E00EE09
:1015E200E0F010EE04F00900F5CFEEFFE550E15017
:1015F200FAE101EE00F0540EEE6AE806FDE100EEBB
:1016020060F0540EEE6AE806FDE1000191EF08F089
:10161200E0C0B4F0E1C0B5F0E2C0B6F0E3C0B7F0AC
:101622006D0E0001B86F4E0EB96FC60EBA6F410E45
:10163200BB6F39EC0AF0B4C0E0F0B5C0E1F0B6C05F
:10164200E2F0B7C0E3F0390E0001E027300EE123EB
:10165200000EE223000EE323FF0EE215C06F7F0EA1
:10166200E315C16F12000001B76F0001B751DBEC47
:101672000BF00001B86F4DEF0BF0C00E6FEC0AF0EB
:101682005DEF0BF0940E6FEC0AF05DEF0BF0D40EF1
:101692006FEC0AF05DEF0BF00001B851940AD8B478
:1016A2003EEF0BF0540AD8B448EF0BF0140AD8B44A
:1016B20043EF0BF05DEF0BF012000001BC6FB9C0FD
:1016C200B7F00001BC5100EC0AF00001B951150D50
:1016D200600E0001BA6F000EBB6FF350BA27F450D0
:1016E200BB230001BC510001BA25D96E0001000ED6
:1016F2000001BB21DA6EDF5034EC0BF01200809057
:101702008082808400F060EC0CF00001B46FB43988
:10171200F00B0001B56F8094808400F060EC0CF057
:101722000001B51380940001B5BF9AEF0BF09CEF56
:101732000BF082EF0BF080920001B5517F0B12008B
:101742000D1F1F1F1F1F1F0D0E1F1F1F1F1F1F0EED
:1017520000040E1F1F0E04000E1B0A1F111F0A0A8F
:1017620008041F101E101F00040A0E111F100E0085
:1017720008040E010F110F00040A0E010F110F00D1
:10178200000E956E000E7F6E9368000E7E6E000E48
:10179200926ECD80CECFB4F0CFCFB5F041EC0CF04D
:1017A2007E8EC280000EC16EC09EC70EC016F80E9D
:1017B200C01612000001B66F80EC0BF0000E956EA1
:1017C200808080920001B6390F0B33EC0CF05CEC98
:1017D2000CF00001B65133EC0CF05CEC0CF00F0E87
:1017E200956E80EC0BF012000001B56FB5C0B4F03D
:1017F2000001B447B447C250B419C30BB419C26E46
:10180200C282C2B207EF0CF009EF0CF002EF0CF04B
:10181200C4501200A5EC0AF0280E6FEC0AF00F0E6D
:101822006FEC0AF0010E6FEC0AF0060E6FEC0AF094
:10183200800E6FEC0AF0AFEC09F012000001B45117
:10184200B603F3CFB8F0F4CFB9F0B451B703F35005
:10185200B927B551B603F350B927B8C0B4F0B9C02F
:10186200B5F012000001B56F83CFB4F0F00E0001A5
:10187200B4170001B5510F0B0001B411836E1200B1
:10188200B4C0E0F0B5C0E1F00001E26BE36B12001E
:10189200010E6FEC0AF0800E6FEC0AF012000F0ED0
:1018A2006FEC0AF01200020E6FEC0AF012000C0E3E
:1018B2006FEC0AF01200808400F0809412008350D2
:0818C2000F0B120001000000F1
:020000040020DA
:08000000FFFFFFFFFFFFFFFF00
:020000040030CA
:0E000000FF081F1EFF8B81FF0FC00FE00F4097
:00000001FF
